{
  "transactions": [
    {
      "hash": "0xe8eeeb28b5dbaef041a12a22d36829191e56b110c29d0485de26cd4a9ea63d7b",
      "transactionType": "CREATE",
      "contractName": "BankV2",
      "contractAddress": "0xe658cc1f4d42efba01840fb1937723e1cfe93609",
      "function": null,
      "arguments": null,
      "transaction": {
        "from": "0xdeff00ebb5ab5688eb09eb2ab1e073a17e8f65e5",
        "gas": "0x906bc",
        "value": "0x0",
        "input": "0x6080604052348015600f57600080fd5b50600080546001600160a01b031916331790556106dd806100316000396000f3fe6080604052600436106100595760003560e01c80630fdb1c10146100f157806330861078146101065780636f9fb98a1461014a578063704b6c021461016557806381454f7114610185578063f851a440146101a757600080fd5b366100ec57600034116100ac5760405162461bcd60e51b81526020600482015260166024820152750b2deea40daeae6e840e6cadcc840e6dedaca408aa8960531b60448201526064015b60405180910390fd5b33600090815260016020526040812080543492906100cb9084906105bf565b9091555050336000818152600160205260409020546100ea91906101df565b005b600080fd5b3480156100fd57600080fd5b506100ea610380565b34801561011257600080fd5b506101266101213660046105d8565b610470565b604080516001600160a01b0390931683526020830191909152015b60405180910390f35b34801561015657600080fd5b50604051478152602001610141565b34801561017157600080fd5b506100ea6101803660046105f1565b61049c565b34801561019157600080fd5b5061019a61050b565b6040516101419190610621565b3480156101b357600080fd5b506000546101c7906001600160a01b031681565b6040516001600160a01b039091168152602001610141565b60005b600381101561024757826001600160a01b03166002826003811061020857610208610667565b60020201546001600160a01b03160361023f57816002826003811061022f5761022f610667565b6002020160010181905550610247565b6001016101e2565b5060005b600381101561037b576002816003811061026757610267610667565b60020201600101548211156103735760006102846001600361067d565b90505b8181111561030757600261029c60018361067d565b600381106102ac576102ac610667565b60020201600282600381106102c3576102c3610667565b82546002919091029190910180546001600160a01b0319166001600160a01b03909216919091178155600191820154910155806102ff81610690565b915050610287565b506040518060400160405280846001600160a01b03168152602001838152506002826003811061033957610339610667565b82516002919091029190910180546001600160a01b0319166001600160a01b03909216919091178155602090910151600190910155505050565b60010161024b565b505050565b6000546001600160a01b031633146103da5760405162461bcd60e51b815260206004820152601760248201527f4f6e6c792061646d696e2063616e20776974684472617700000000000000000060448201526064016100a3565b47806104335760405162461bcd60e51b815260206004820152602260248201527f496e73756666696369656e742066756e647320696e2074686520636f6e74726160448201526118dd60f21b60648201526084016100a3565b600080546040516001600160a01b039091169183156108fc02918491818181858888f1935050505015801561046c573d6000803e3d6000fd5b5050565b6002816003811061048057600080fd5b6002020180546001909101546001600160a01b03909116915082565b6001600160a01b0381166104e95760405162461bcd60e51b81526020600482015260146024820152730616464726573732063616e206e6f7420626520360641b60448201526064016100a3565b600080546001600160a01b0319166001600160a01b0392909216919091179055565b610513610570565b6040805160608101909152600260036000835b82821015610567576040805180820190915260028302850180546001600160a01b031682526001908101546020808401919091529183529092019101610526565b50505050905090565b60405180606001604052806003905b604080518082019091526000808252602082015281526020019060019003908161057f5790505090565b634e487b7160e01b600052601160045260246000fd5b808201808211156105d2576105d26105a9565b92915050565b6000602082840312156105ea57600080fd5b5035919050565b60006020828403121561060357600080fd5b81356001600160a01b038116811461061a57600080fd5b9392505050565b60c08101818360005b600381101561065e57815180516001600160a01b03168452602090810151818501526040909301929091019060010161062a565b50505092915050565b634e487b7160e01b600052603260045260246000fd5b818103818111156105d2576105d26105a9565b60008161069f5761069f6105a9565b50600019019056fea2646970667358221220af140c3e38a102dd0a1dd1ba60a01cabcfa4b70854f1d2dcb5792f52e25b902464736f6c634300081c0033",
        "nonce": "0x18",
        "chainId": "0xaa36a7"
      },
      "additionalContracts": [],
      "isFixedGasLimit": false
    },
    {
      "hash": "0x8ea4c8d0e942c9dfb882bca8e3bcc526d2130e698d07fb61004af8e97357e2f8",
      "transactionType": "CALL",
      "contractName": "BankV2",
      "contractAddress": "0xe658cc1f4d42efba01840fb1937723e1cfe93609",
      "function": "setAdmin(address)",
      "arguments": [
        "0x0edC1769D93cC8A3f4fEB030791e0793E4Aef2d7"
      ],
      "transaction": {
        "from": "0xdeff00ebb5ab5688eb09eb2ab1e073a17e8f65e5",
        "to": "0xe658cc1f4d42efba01840fb1937723e1cfe93609",
        "gas": "0x90d9",
        "value": "0x0",
        "input": "0x704b6c020000000000000000000000000edc1769d93cc8a3f4feb030791e0793e4aef2d7",
        "nonce": "0x19",
        "chainId": "0xaa36a7"
      },
      "additionalContracts": [],
      "isFixedGasLimit": false
    }
  ],
  "receipts": [
    {
      "status": "0x1",
      "cumulativeGasUsed": "0x1258fdb",
      "logs": [],
      "logsBloom": "0x00000000000000000000000000000000000000000000000000000000000000000000000000000000000000000000000000000000000000000000000000000000000000000000000000000000000000000000000000000000000000000000000000000000000000000000000000000000000000000000000000000000000000000000000000000000000000000000000000000000000000000000000000000000000000000000000000000000000000000000000000000000000000000000000000000000000000000000000000000000000000000000000000000000000000000000000000000000000000000000000000000000000000000000000000000000",
      "type": "0x2",
      "transactionHash": "0xe8eeeb28b5dbaef041a12a22d36829191e56b110c29d0485de26cd4a9ea63d7b",
      "transactionIndex": "0x42",
      "blockHash": "0x035fd4c284aef901c10fb3338e1ddad5c50cdeb0e12191f12a4f0c936b59c738",
      "blockNumber": "0x699e7f",
      "gasUsed": "0x6f1ef",
      "effectiveGasPrice": "0x19bf723f8",
      "from": "0xdeff00ebb5ab5688eb09eb2ab1e073a17e8f65e5",
      "to": null,
      "contractAddress": "0xe658cc1f4d42efba01840fb1937723e1cfe93609"
    },
    {
      "status": "0x1",
      "cumulativeGasUsed": "0x125f8ba",
      "logs": [],
      "logsBloom": "0x00000000000000000000000000000000000000000000000000000000000000000000000000000000000000000000000000000000000000000000000000000000000000000000000000000000000000000000000000000000000000000000000000000000000000000000000000000000000000000000000000000000000000000000000000000000000000000000000000000000000000000000000000000000000000000000000000000000000000000000000000000000000000000000000000000000000000000000000000000000000000000000000000000000000000000000000000000000000000000000000000000000000000000000000000000000",
      "type": "0x2",
      "transactionHash": "0x8ea4c8d0e942c9dfb882bca8e3bcc526d2130e698d07fb61004af8e97357e2f8",
      "transactionIndex": "0x43",
      "blockHash": "0x035fd4c284aef901c10fb3338e1ddad5c50cdeb0e12191f12a4f0c936b59c738",
      "blockNumber": "0x699e7f",
      "gasUsed": "0x68df",
      "effectiveGasPrice": "0x19bf723f8",
      "from": "0xdeff00ebb5ab5688eb09eb2ab1e073a17e8f65e5",
      "to": "0xe658cc1f4d42efba01840fb1937723e1cfe93609",
      "contractAddress": null
    }
  ],
  "libraries": [],
  "pending": [],
  "returns": {},
  "timestamp": 1729588977,
  "chain": 11155111,
  "commit": "610bdc7"
}